:0400000034EF00F0E9
:0E0008005382D9CF03F0DACF04F04BEF20F093
:100018005380D8CF08F0E8CF09F0E0CF0AF0D9CF65
:100028000BF0DACF0CF0A3BCA4AC03D01EEC25F087
:100038000BD0A3BEA4AE03D014EC11F005D0F2BAD5
:10004800F2A402D0A6EC24F00CC0DAFF0BC0D9FF52
:100058000AC0E0FF09C0E8FF08C0D8FF53901000AD
:0400680099EF18F004
:100800000037332F2B27231F1B17130F0B0703FF53
:10081000FBF7F3EFEBE7E3DFDBD7D3CFCBC7C3BF08
:100820000602070501040003080502050404040488
:03083000020400BF
:100834000001F66F330EF61901E0BCD287DBDFAEA0
:1008440041D084DB800EDF5E20EE03F079DB18E11B
:10085400F86B000EF825D96EDA6A020EDA22DF6A26
:10086400F82B530EF865F5D7AA0E0201006F016B41
:10087400560E026F300E036F130E046F0001996B56
:1008840065DB9951DE18D8A4120020EE02F03D5029
:10089400D9263E50DA22090EDE1806E1F86B22DB77
:1008A400070EF865FCD705D0F86B1CDB030EF86562
:1008B400FCD7992B0B0E9919D8A41200996B55DB10
:1008C40062EF1DF020EE03F03BDBF66F20EE05F047
:1008D40037DB3B6E3C6A040E3D26000E3E226AD294
:1008E4003CC03FF03BC040F0020E401809E1050E49
:1008F400FAEC23F0000E9FEC24F0000E1CEC25F023
:100904003F5001E086D097D0030E40181CE1020E40
:10091400416E190E4D1804E120EE02F011DBAD6FAB
:1009240067C06DF068C06EF069C06FF06AC070F0A7
:100934006BC071F06CC072F0030EFAEC23F0000E81
:100944009FEC24F0000C090E4018D8A41200040EE9
:10095400416E040C030E40181DE1030E416E20EE9F
:1009640003F0EEDA6D6F20EE04F0EADA6E6F20EE3B
:1009740005F0E6DA6F6F20EE06F0E2DA706F20EE33
:1009840007F0DEDA716F20EE08F0DADA726F040E27
:10099400FAEC23F0020E9FEC24F0010E1CEC25F07F
:1009A4001A0E4D18D8A41200426A436A1D0E4D6EE9
:1009B4001D0C030E401814E1050E416E010EFAECF5
:1009C40023F0000E9FEC24F0000E1CEC25F01B0E0F
:1009D4004D18D8A4120020EE02F0B2DAAD6F120066
:1009E400090E4018D8A41200070E416E070C030E1E
:1009F400401805E1060E416E020EFAEC23F0020ED9
:100A04009FEC24F0010E1CEC25F01C0E4D18CCE0DC
:100A140012003F50010A01E177D7030A01E174D7BC
:100A2400010A01E171D7070A95E0010AC2E0030A4D
:100A3400D8A41200DCD740500AE1416A000E9FECB2
:100A440024F0000E1CEC25F0000EFAEF23F0020E49
:100A54004018D8A41200010E416E010C3BC0B1F045
:100A6400B151D8B41200020E526E51EF21F03BC0C6
:100A74009BF09B05D8A41200526A51EF21F03BC0B1
:100A84009DF09D51F9E0010EEFD7A5853BC010F014
:100A9400040E4EEC1CF0040E0001A96F040CA59585
:100AA4003BC010F0040EC9EF1DF0A58B3BC010F045
:100AB400200E4EEF1CF0A58D3BC010F0400E4EEF03
:100AC4001CF0A59BA59D3BC010F0200EC9EC1DF0A9
:100AD4003BC010F0400EC9EF1DF0A5873BC010F0DD
:100AE400080E4EEC1CF0D7D7A5973BC010F0080EAB
:100AF400C9EF1DF0A5893BC010F0100E4EEF1CF09D
:100B0400A5993BC010F0100EC9EF1DF0A5833BC0A2
:100B140010F0020E4EEF1CF0A5933BC010F0020E35
:100B2400C9EF1DF0A5813BC010F0010E4EEF1CF083
:100B3400A5913BC010F0010EC9EF1DF0A58F3BC07D
:100B440010F0800E4EEF1CF0A59F3BC010F0800EFD
:100B5400C9EF1DF0020EA96F020C010EA96F010C62
:100B6400030EA96F030C050EA96F050C080E4D1892
:100B7400D8A41200426A436A090E4D6E090C0A0E8B
:100B84004D18D8A41200426A436A0B0E4D6E0B0C2A
:100B94003BC0AEF0130E4D18D8A41200140E4D6EC7
:100BA400140C7DEC21F03BC0ABF0020E0001AB193C
:100BB40003E0040EAB1905E13CC03BF03C6A3BC0CA
:100BC400ACF0150E4D18D8A41200426A436A160EF2
:100BD4004D6E160C3BC0A6F012001F0E4D6E1F0C7E
:100BE400010E0D6E3B50C4EC20F051EF21F03B5050
:100BF4003C1005E1000E67EC1FF051EF21F03B04BF
:100C04003C1002E051EF21F0000E81EC1FF051EF97
:100C140021F0020E411809E0050E411806E0040E09
:100C2400411803E0070E411803E1A6D9EFEC23F0C5
:100C3400156A3B503FEC1DF051EF21F0020E4118B4
:100C440009E0050E411806E0040E411803E0070E02
:100C5400411803E191D9EFEC23F03B503C1013E130
:100C6400000E67EC1FF05250D8A4120051EC21F092
:100C7400F4EC20F0000905E04F50D9EC23F0A7EF85
:100C84001DF0448012003B043C10D8A41200000E56
:100C940081EC1FF05250D8A4120051EC21F0F4EC76
:100CA40020F00009EEE04F50D9EC23F0A7EF1DF03F
:100CB4000D6A3B500F0BC4EC20F0020E0D6E3B3856
:100CC4000F0BC4EF20F0156A3B503FEC1DF052505F
:100CD400D8A4120051EC21F0F4EC20F00009D1E08A
:100CE4004F50D9EC23F0A7EF1DF03F0404E0020EAF
:100CF4003F18D8A41200F4EC20F0000904E091ECB1
:100D040020F084EF1EF04984120027D9F7C0B6F012
:100D14002DD00F0E4D6403D01D0E4D6405D0250E4D
:100D24004D1802E0C5EF24F0000E9FEC24F0000EF5
:100D34001CEC25F0C5EF24F0ECEC24F0000907E0EE
:100D4400EAEC22F0E80603E1010EF8EC24F0EAEC08
:100D540022F0E80605E00001F46B020EF36F03D005
:100D64000001F36BF46BF35113EF1FF0F751D1E073
:100D7400010AD8B41200030AD8B41200010AD8A494
:100D84001200DAD7EAD8F7AB1200F5AB02D0A79B72
:100D94001200A78B1200E1D8F7AD05D0F5AD02D053
:100DA400A89D01D0A88D060E4D18D8A41200070ED8
:100DB4004D6E070CF651010A01E192D5030A01E1D7
:100DC4004DD6010A01E153D6070A01E158D6010ABA
:100DD40001E15BD6030A01E162D6010A01E17DD695
:100DE4000F0A01E181D6010A01E184D6030A01E177
:100DF40087D6010A01E159D6070A01E15CD6010A46
:100E040001E15FD6030A01E181D6010A01E184D63A
:100E14001F0A01E187D6010A01E18AD6030A01E12A
:100E24008DD6010A01E190D6070A01E193D6010AA1
:100E340001E193D6030A01E193D6010A01E193D6B5
:100E44000F0AD8B41200010AD8B41200030AD8B4A5
:100E54001200010AD8B41200070A01E187D6010A78
:100E640001E18DD6030A01E193D6010A01E199D685
:100E74003F0A01E1AFD6010A01E1B9D6030A01E153
:100E8400C8D6010A01E1ACD6070A01E1A6D6010AD7
:100E940001E1D4D6030A01E10BD7010A01E113D71A
:100EA4000F0AD8B41200010A01E11FD7030A01E1B5
:100EB4002CD7010AD8B41200070AD8B41200010AC8
:100EC400D8B41200030AD8B41200010AD8B412002C
:100ED4001F0A01E157D7010AD8B41200030A01E13D
:100EE4005AD71200F8513D24ED6F000E3E20EE6FEC
:100EF400040EED25D96E000EEE21DA6E9951EF6FD6
:100F0400F06BD890EF37F037D890EF37F037D890B0
:100F1400EF37F037000EF16F020EF26F050EF12776
:100F2400000EF223EF51F127F051F223F851F1258D
:100F3400E16E000EF221E26EDFCFE7FFF82B120024
:100F44003D50D9263E50DA22DF50120020EE03F045
:100F54003D50D9263E50DA2212003BC0F5F03CC089
:100F64003BF03C6A3BC0F7F01200000E176E020E15
:100F7400186E5A0E196E5A0C3BC02FF0F65112001F
:100F84000101215103E02151ACEC20F0220E0101BA
:100F9400211901E150D221050AE0170E211907E0B9
:100FA400180E211904E0330E211901E044D2B9ECE2
:100FB40024F0000901E13FD2210E176E010E186ED4
:100FC4009FC019F01A6A4EC01BF09EC01CF04EEC74
:100FD40013F031D23C6A3B6A72DA330E1AEF04F032
:100FE40023C10DF02251F4EF15F03C6A3B6A67DA35
:100FF400150E1AEF04F03C6A3B6A61DA140E1AEF1C
:1010040004F03C6A3B6A5BDA160E1AEF04F03C6AA1
:101014003B6A55DA170E1AEF04F03C6A3B6A4FDA62
:10102400180E1AEF04F03C6A3B6A49DA190E1AEFFB
:1010340004F055DA3CDA050E1AEF04F038DA060E3D
:101044001AEF04F034DA0B0E1AEF04F030DA0C0E57
:101054001AEF04F02CDA0D0E1AEF04F040DA27DA56
:10106400070E1AEF04F023DA080E1AEF04F01FDA61
:10107400090E1AEF04F01BDA0A0E1AEF04F017DA5D
:101084000E0E1AEF04F013DA0F0E1AEF04F00FDA53
:10109400100E1AEF04F00BDA110E1AEF04F007DA4F
:1010A400120E1AEF04F003DA130E1AEF04F02251B1
:1010B4009CE0010AACE0030A9EE0010AAEE0070AE4
:1010C400B2E0010AB6E0030AC9E0010AB7E00F0A78
:1010D400CAE0010ADCE0030ADEE0010AC8E0070A0C
:1010E400CAE0010AAFE0030AB5E0010A8AE01F0A78
:1010F400ADE0010AC8E0030AD2E0010AD8B4120044
:10110400070AD1E0010AD8A41200B9D7D0D9020E37
:101114001AEF04F0CCD9030E1AEF04F03C6A3B6AD0
:10112400CED9240E1AEF04F0C2D9250E1AEF04F01A
:10113400BED9260E1AEF04F0BAD9270E1AEF04F01E
:10114400B6D9280E1AEF04F0B2D9290E1AEF04F01A
:101154002251D8B41200010AD9E0030AD8B412000B
:10116400010AD8B41200070AD5E0010AD7E0030A3D
:10117400DBE0010ADDE00F0ADFE0010AE1E0030A37
:10118400D8B41200010AD8B41200070AD8B4120065
:10119400010AD8B41200020AD8A41200D5D787D9FC
:1011A400040E1AEF04F022C1EBF194D923518CD927
:1011B40086D9010E1AEF04F0225103E123290CE130
:1011C40011D0220507E0020E221904E0030E2219B1
:1011D400D8A41200235106E13C6A3B6A70D91A0E66
:1011E4001AEF04F03C6A3B6A6AD91B0E1AEF04F04A
:1011F400220E0D6E010E0E6E10EC22F03C6A3B6A5C
:101204005ED91C0E1AEF04F0220E116E010E126E3E
:10121400BFEC24F03C6A3B6A52D91D0E1AEF04F06D
:1012240022C13BF03C6A4BD91E0E1AEF04F03FD9A1
:10123400230E1AEF04F03BD9210E1AEF04F037D92C
:10124400220E1AEF04F02D05D8A412002EC13BF093
:101254003C6A35D9200E1AEF04F026C1E9F1EA6B95
:10126400E951EA6FE96B2751E913CC0E2B1903E11D
:101274002C51E4EF24F0300E2B190BE12D0E0D6EE2
:10128400010E0E6E540E0F6EE6EC16F0000926E009
:101294001200020E2B1922E12C5115E01FD0EAECAA
:1012A40022F0E806D8A41200010EF8EF24F0EAECCC
:1012B40022F0030A05E0EAEC22F0020AD8A41200A4
:1012C400020EF8EF24F02D51510AE9E0030AD8B4D4
:1012D4001200010AECE0070AD8B4120001012951F6
:1012E4000AE0280E1A6E010E1B6EE9C11CF029C11A
:1012F4001DF081EF14F0280E0D6E010E0E6EE9C183
:101304000FF04AEC16F000090EE07FEC24F000091F
:10131400D8B41200280E0D6E010E0E6EE9C10FF046
:10132400106A89EF1BF07FEC24F00009D8B4120096
:10133400220E0D6E010E0E6E9F050F6E010E106EC5
:1013440089EF1BF024C13BF03C6AB9D82E0E1AEC8D
:1013540004F0250E276E010E286E00019F51FC0F2C
:10136400296E0101245165EF1AF023C1EBF1B2D8C3
:101374002251AAD8A4D81F0E1AEF04F023C1EBF10E
:10138400A9D82451A1D89BD82A0E1AEF04F08FD8DB
:101394002B0E1AEF04F03C6A3B6A91D82C0E1AEF1C
:1013A40004F023C1EBF196D824518ED888D82D0EA1
:1013B4001AEF04F02251E2E0010AE9E0030AEBE04B
:1013C400010AD8A41200EDD7221F231F241F251FB2
:1013D400225109E022C1EBF17DD8265175D86FD88E
:1013E4002F0E1AEC04F00101235109E023C1EBF1A3
:1013F40071D8275169D863D8300E1AEC04F0010172
:10140400245109E024C1EBF165D828515DD857D89F
:10141400310E1AEC04F001012551D8B4120025C193
:10142400EBF158D8295150D84AD8320E1AEF04F0AB
:101434002151ACEF20F00101215101E1D1D5010A84
:1014440001E135D6030A01E1AAD60D0A01E1EFD67E
:10145400170AD8B41200020A01E1F5D6010A01E123
:1014640077D6040A01E1DCD63F0A01E1C1D6010ABC
:1014740001E1CAD6030A01E1F0D6010A01E19CD6D2
:10148400050A01E1D8D6010A9FE00E0A01E1D7D688
:101494001B0A90E0010A01E186D6070A01E19AD508
:1014A4000D0A01E14FD7030A01E15FD7C1D723C178
:1014B4003BF03C6A220E3D6E010E3E6E1200220E7F
:1014C4003D6E010E3E6E1200EB13EBC13BF0ECC11E
:1014D4003CF01200EC6BEB51EC6FEB6B1200235100
:1014E4000F0B4E6E1200C0D1000E436EC80E426E3A
:1014F400010EA1D14250431001E025D2000E436EEB
:10150400140E426E8F80020E96D14250431001E0B9
:101514001AD28F86ABEC23F0010E436EF40E426EAA
:10152400030E89D14250431001E00DD2040E83D141
:101534000001A90501E007D2F4EC20F0000901E163
:1015440002D20BEC1EF0050E76D1F4EC20F000096B
:1015540001E1F9D1A3EC1CF005DA060E6CD142507E
:10156400431001E0F0D1070E66D1F4EC20F000093D
:1015740001E1E9D1F7D92BEC1EF0080E5CD1425001
:10158400431001E0E0D1EED92BEC1EF0DCD1F4ECF9
:1015940020F0000901E1D7D1E5D9CEEC1FF00A0E05
:1015A4004AD14250431001E0CED1DCD9CEEC1FF039
:1015B400CAD1000E9FEC24F0000E1CEC25F00C0E9A
:1015C4004D6ED0D9C0D14250431005E02DEC24F02B
:1015D400000901E0B8D1426A436A250E2CD1F4EC2B
:1015E40020F0000907E04EC017F0510E84EC1EF005
:1015F4000E0E21D1020E4C1801E0A5D1250E4D6E20
:101604004C6AA1D1F4EC20F0000901E19CD14EC058
:1016140017F0520E84EC1EF00F0E0DD1000E9FEC4D
:1016240024F0000E1CEC25F0100E05D187EC24F0FC
:10163400000901E188D1110EFED0F4EC20F000097C
:1016440001E181D1526A51EC21F05050D9EC23F0E0
:10165400176E5150D9EC23F0186E4F50D9EC23F08B
:10166400F5EC1CF0120EE7D0F4EC20F0000901E1D7
:101674006AD100EC20F0130EA3D74250431001E0CE
:1016840062D10001AE6B00EC20F09BD7F4EC20F0AB
:10169400000901E158D10001AC6BAD6BE7EC1FF020
:1016A400150E8ED74250431001E04DD10001AE51CA
:1016B40004E094EC20F0170EBED01D0EBCD0F4EC68
:1016C40020F0000916E13FD15AD984EC1EF046847B
:1016D400180EB1D054D984EC1EF04686F9D752D9ED
:1016E40084EC1EF04688F4D74DD984EC1EF0468A6B
:1016F400EFD70001AB51DBE0010AD9E0030AE4E0D3
:10170400010AE8E0070AEBE0010AEEE01CD1F4EC80
:1017140020F0000901E117D146A407D0469438D936
:1017240084EC1EF024D9190E86D046A607D046961E
:1017340032D984EC1EF01BD91A0E7DD046A807D0EE
:10174400469826D984EC1EF012D91B0E74D046AAF2
:10175400FAD0469A20D984EC1EF009D91C0E6BD01D
:1017640042504310AAE00001AC510FE0AC51AD1956
:101774000CE1F4EC20F0000908E0FED884EC1EF043
:101784001D0E4D6E426A436ADED0020E4C1801E013
:1017940037D71E0E34D7425043108FE0F6D742504D
:1017A40043108BE00001AC51AD19EFE1F4EC20F0F3
:1017B4000009EBE0E1D884EC1EF0E2D7F4EC20F071
:1017C400000901E1C0D01F0E4D1805E1DED884ECFC
:1017D4001EF0210E30D03F500FE0060E3F1805E1F9
:1017E400D4D884EC1EF0200E26D04EC017F0ED0E97
:1017F40084EC1EF0240E1FD03F5007E1020E401867
:1018040004E1C3D884EC1EF0EED7BFD884EC1EF0FC
:10181400EAD7F4EC20F0000901E195D0436A960E72
:10182400426E4EC017F0540E84EC1EF0200E4D187C
:10183400220ED8A4230E4D6E86D04250431001E0F0
:1018440082D0250E4D6EECEC24F000097CE0000EF5
:101854009FEC24F0000E1CEC25F075D04C5073E086
:101864004C0471E10D0ECBD64D5001E13DD6010A79
:1018740001E140D6030A01E148D6010A01E152D64A
:10188400070A01E155D6010A01E15FD6030A01E125
:1018940066D6010A01E169D60F0A01E170D6010A90
:1018A40001E175D6030A01E17CD6010A01E181D682
:1018B400070A01E188D6010A01E191D6030A01E190
:1018C400A1D6010A01E1AAD61F0A01E1AFD6010A95
:1018D40001E1B3D6030A01E1C7D6010A01E1CDD67D
:1018E400070A01E1D3D6010A01E1DCD6030A01E1CA
:1018F400E6D6010A01E1E1D60F0A01E108D7010A9F
:1019040001E12ED7030A01E146D7010A01E147D7D5
:10191400070A01E140D7010A01E137D7030A01E1CF
:101924004DD7010A01E14AD73F0A01E172D7010A02
:1019340001E16FD7030A81E0010A01E17ED7070ABA
:1019440002E0010A8BE0030E4D64030C23EC24F047
:101954004BEC22F099EC16F0D0EC0CF09BEC15F06B
:10196400BDEF1BF0030E436EE80E426EE80CF60E5C
:10197400436E180E426E180C4EC017F0E30C4EC0A6
:1019840017F0F40C4EC017F0F50C4EC017F0530CC2
:101994004EC017F0E00C4EC017F0E10C4450451057
:1019A40064E044A00AD0F4EC20F0000906E044907E
:1019B4004F50D9EC23F0A7EC1DF044A20AD0F4EC6C
:1019C40020F0000906E044925050E0EC24F07AEC58
:1019D4001CF044A40AD0F4EC20F0000906E044947E
:1019E4005150E0EC24F085EC1DF044A60AD0F4EC50
:1019F40020F0000906E04496D90E176E186ADEEC52
:101A04001AF044A808D0F4EC20F0000904E044984B
:101A1400000E2FEC1FF044AA08D0F4EC20F00009CB
:101A240004E0449A010E2FEC1FF044AC08D0F4EC0F
:101A340020F0000904E0449C030E2FEC1FF044AE98
:101A440008D0F4EC20F0000904E0449E070E2FECCB
:101A54001FF045A00AD0F4EC20F0000906E0459000
:101A64004EC017F0020E67EC1EF04650471001E11D
:101A740080D046A208D0F4EC20F0000904E046929D
:101A840010D984EC1EF046A008D0F4EC20F0000934
:101A940004E0469006D984EC1EF046AC08D0F4EC81
:101AA40020F0000904E0469CEDD884EC1EF046AE1C
:101AB40008D0F4EC20F0000904E0469EFED884EC43
:101AC4001EF047A008D0F4EC20F0000904E0479091
:101AD400DFD884EC1EF047A208D0F4EC20F0000913
:101AE40004E04792D2D884EC1EF047A408D0F4EC6A
:101AF40020F0000904E04794DAD884EC1EF047A6ED
:101B040008D0F4EC20F0000904E04796D3D884EC24
:101B14001EF047A80AD0F4EC20F0000906E047982C
:101B24004EC017F0040E84EC1EF047AA0AD0F4EC61
:101B340020F0000906E0479A4EC017F0020E84EC2C
:101B44001EF047AC0AD0F4EC20F0000906E0479CF4
:101B54004EC017F00C0E84EC1EF047AE0AD0F4EC25
:101B640020F0000906E0479E4EC017F0050E84ECF5
:101B74001EF048504910D8B4120048A00AD0F4EC22
:101B840020F0000906E048904EC017F00E0E84ECD9
:101B94001EF048A20AD0F4EC20F0000906E04892B6
:101BA4004EC017F00A0E84EC1EF048A40AD0F4ECE0
:101BB40020F0000906E048944EC017F00B0E84ECA8
:101BC4001EF048A608D0F4EC20F0000904E0489682
:101BD40062D884EC1EF048A809D0F4EC20F0000987
:101BE40005E04898BEEC0CF084EC1EF048AA09D03D
:101BF400F4EC20F0000905E0489ABDEC17F084EC01
:101C04001EF048AC09D0F4EC20F0000905E0489C33
:101C1400C0EC17F084EC1EF048AE08D0F4EC20F0D1
:101C2400000904E0489E40D884EC1EF049A009D085
:101C3400F4EC20F0000905E04990C1EC0CF084ECD0
:101C44001EF049A209D0F4EC20F0000905E0499205
:101C5400C4EC0CF084EC1EF049A409D0F4EC20F0A0
:101C6400000905E0499491EC20F084EC1EF049A6AB
:101C74001200F4EC20F00009D8B4120049960ED8F2
:101C840084EF1EF04EC017F05D0C4EC017F0350CFB
:101C94004EC017F0340C4EC017F0320C4EC017F083
:101CA400F70C4EC017F0E20C4EC017F0EC0C4EC00F
:101CB40017F0300C4EC017F0310C4EC017F0560C14
:101CC40020EE01F065D9DF500F0B01E1120020EE88
:101CD40001F05ED9DFA80CD020EE02F059D9600ED5
:101CE400DE5CEA0EDE5801E31CD120EE02F00BD0DC
:101CF40020EE04F04DD9600EDE5CEA0EDE5801E3FE
:101D040010D120EE04F044D92750DE262850DD22DD
:101D140008D120EE01F03CD9DFA8F1D0010E3DD965
:101D2400ECEC11F057D0EBD020EE02F031D9DE50BC
:101D3400DE1012E020EE02F02BD9F40EDE5C010E70
:101D4400DE580AE220EE01F023D9DFB805D0010EF7
:101D540024D9ECEC11F03ED020EE02F019D9590E42
:101D6400DE5C020EDE58DFE320EE01F011D9DFA8BD
:101D7400C6D0010E12D9ECEC11F020EE02F008D915
:101D8400640EDE5E000EDD5A25D020EE02F000D98E
:101D9400DE50DE100AE020EE01F0FAD8DFB8AFD052
:101DA400010EFBD8ECEC11F015D0A9D020EE02F016
:101DB400EFD8DE50DE1013E020EE02F0E9D8F4D8BC
:101DC4000EE220EE01F0E4D8DFB809D0010EE5D828
:101DD400ECEC11F020EE06F0DBD8010E8FD020EEF3
:101DE40002F0D6D8E80EDE180DE1030EDE180AE183
:101DF40020EE01F0CDD8DFA805D0020ECED8ECEC51
:101E040011F078D020EE02F0C3D8DE50DE1077E077
:101E140020EE02F0BDD8E90EDE5C030EDE586FE35F
:101E240020EE01F0B5D8DFB86AD0050EB6D8ECECD8
:101E340011F065D020EE02F0ABD8DE50DE101CE1CC
:101E440020EE01F0A5D8DFB817D020EE04F0A0D81A
:101E5400010EDB5003E1C90EDE5C0EE320EE06F05A
:101E640097D8DE0409E1030E98D8ECEC11F020EECB
:101E740006F08ED8030EDF6E20EE02F089D8DE5015
:101E8400DE1026E020EE02F083D88ED821E220EE88
:101E940001F07ED8DFB81CD020EE04F079D8010E12
:101EA400DB5011E1C90EDE5C0EE220EE06F070D8C4
:101EB400DE0409E1040E71D8ECEC11F020EE06F01A
:101EC40067D8040E1BD0010E68D8ECEC11F082D751
:101ED40020EE02F05DD8E80EDE1811E1030EDE18E4
:101EE4000EE120EE01F054D8DFA809D0020E55D837
:101EF400ECEC11F020EE06F04BD8020EDF6E20EE73
:101F040002F046D8DE50DE1020E020EE01F040D88A
:101F1400DFB81BD020EE04F03BD8000EDE6EDD6E81
:101F240014D020EE01F034D8DF500F0B010A01E188
:101F3400F0D6030A01E1F8D6010A01E126D7070A1F
:101F440001E134D7010A01E175D725C0D9FF26C0C4
:101F5400DAFFDF5012E120EE02F01AD8100EDE187C
:101F64000CE1270EDE1809E120EE01F011D8DFA8FC
:101F740004D0100E12D8ECEC11F020EE01F008D8C9
:101F8400DFB8120020EE02F003D8DE6ADD6A000C2E
:101F94002550D9262650DA221200236E25C0D9FFF7
:101FA40026C0DAFFDF501200E80EDE5C030EDE58B6
:101FB4001200140EBC6F8C948C96AF6B0E0EAF6532
:101FC400FDD78C84AF6B020EAF65FDD78C869282F1
:101FD400938A700ED26FC10E1CD99FEC23F013D9D3
:101FE40032EC20F0700ED26FD50E13D99FEC23F093
:101FF4000AD932EC20F0720ED26FBE0E0AD99FECD1
:1020040023F001D932EC20F0800ED26F400ED36F52
:102014007F0ED46FD56B070ED66FD76B040ED86FB7
:10202400FDD89FEC23F01A6A070E196ED20E1B6EB0
:1020340032EC20F0720ED26F440EEBD89FEC23F0FA
:10204400E2D832EC20F0720ED26F6D0EE2D89FEC23
:1020540023F0D9D832EC20F0730ED26FD60ED9D833
:102064009FEC23F0D0D832EC20F0070ED26F200E74
:10207400D0D89FEC23F0C7D832EC20F00A0ED26FF0
:10208400020EC7D89FEC23F0BED832EC20F02F0EFE
:10209400D26F010EBED89FEC23F0B5D832EC20F0FD
:1020A4002F0ED26F020EB5D89FEC23F0ACD832ECD1
:1020B40020F0080ED26F2F0EACD89FEC23F0A3D8DB
:1020C40032EC20F0090ED26F2F0EA3D89FEC23F030
:1020D4009AD832EC20F00B0ED26FD36B9FD89FECC2
:1020E40023F091D832EC20F00C0ED26F600E91D810
:1020F4009FEC23F088D832EC20F00D0ED26F010E45
:1021040088D89FEC23F07FD832EC20F00E0ED26FEB
:10211400D36B84D89FEC23F076D832EC20F0230ED6
:10212400D26F040E76D89FEC23F06DD832EC20F0F9
:10213400110ED26F030E6DD89FEC23F064D832ECED
:1021440020F0720ED26F4D0E64D89FEC23F05BD852
:1021540032EC20F0720ED26F4A0E5BD89FEC23F063
:1021640052D832EC20F0710ED26F270E52D89FEC69
:1021740023F049D832EC20F0710ED26F590E49D8B1
:102184009FEC23F040D832EC20F0710ED26F580E41
:1021940040D89FEC23F037D832EC20F0720ED26F87
:1021A400B70E37D89FEC23F02ED832EC20F0720E05
:1021B400D26FBC0E2ED89FEC23F025D832EC20F041
:1021C400720ED26FB40E25D89FEC23F01CD832ECDB
:1021D40020F0100ED26F030E1CD89FEC23F013D8FE
:1021E40032EC20F0AF6B130EAF65FDD79CEC23F0FF
:1021F40010D89FEC23F007D832EC20F08C88DEEC6A
:1022040018F019EF20F01A6A020E196ED20E1B6E26
:102214001200D36F0E6A500E0D6E500C0E6A500EE3
:102224000D6E500CA49E63AEAFD0639E0001BD6BD7
:1022340030EC22F046EC1BF0906B916B120075B3FE
:10224400120074C090F0916B7451D96EDA6ADF5049
:10225400BE6F7451D96EDA6AD92ADF50066E06C091
:1022640092F0936B030E7427E70E030F746302D08E
:10227400E70E746F75917351741901E1758362806F
:10228400020EBD6F020C62AC04D014D0040E24EF15
:1022940022F0D890EB31076EEA31066E0650666E76
:1022A400EAA103D00B0EBD6F0B0C030EBD6F030C24
:1022B40062AC02D0772BEAD76282EB51060B066E32
:1022C400076AF00E0610EA6F0750EB6FEA81010E01
:1022D400946FD6D7940513E092C0D9FF93C0DAFF68
:1022E400DECFEAF0DDCFEBF020EE03F068D8066E27
:1022F40006C084F0856B20EE02F061D8956FEAC0C9
:1023040066FFEAA1D2D7050EBD6F050C62AC05D0FD
:10231400772B629C050E24EF22F09507952907E19F
:1023240068EC23F0BE2F01D028D06282A9D74DD803
:10233400DF50666E844B852B120062AC06D0772B7F
:10234400040E24EC22F0629C12006286080EBD6F1B
:10235400080C080EBD6F6286080C37D866CFDFFF05
:10236400844B852B950704E0629A060EBD6F03D05B
:10237400628A5FEC23F062881200000E24EF22F0E0
:10238400772B060E24EF22F00001BD5101E157D74F
:10239400010ACBE0030A9EE0010AB8E0070AEDE077
:1023A400010ACBE0030AD5E0010AE7E00F0AD5E011
:1023B400020A01E168D7010A01E17AD7E1D7925113
:1023C400D9269351DA22DF50120084C0D9FF85C088
:1023D400DAFF1200246EB5D0230407E1EAEC22F000
:1023E400030AD8A41200B5EF1FF0020E2318D8A4D4
:1023F4001200EAEC22F0030AD8B4B8EC22F012007E
:10240400230413E1EAEC22F0E80603E1010EF8EFFD
:1024140024F0EAEC22F0030A05E0EAEC22F0020AD6
:10242400D8A41200020EF8EF24F0020E231807E1DC
:10243400EAEC22F0030AD8A4120043EF23F0100EB2
:102444002318D8A4120005EF24F0EAEC22F0030AC2
:1024540005E12304D8A41200E3EF14F02304D8A464
:102464001200CEEF23F0EAEC22F0030A05E1230484
:10247400D8A412003FEF15F02304D8A4120087EF6C
:1024840023F0230407E1EAEC22F0030AD8A41200A3
:102494000FEF24F0020E231807E1EAEC22F0030AFE
:1024A400D8A4120054EF24F0050E2318D8A4120067
:1024B400EAEC22F0030AD8A4120066EF24F0230405
:1024C40007E1EAEC22F0030AD8A4120019EF24F081
:1024D400020E231807E1EAEC22F0030AD8A4120042
:1024E4005DEF24F0050E2318D8A41200EAEC22F0C4
:1024F400030A02E166EF24F01200020E231802E13F
:1025040066EF19F0030E231802E164EF20F0040EC5
:102514002318D8A412003BEF21F0020E231802E185
:102524007AEF17F0030E231801E11200040E2318AA
:10253400D8A412007CEF20F02304D8A412004BEF9F
:1025440024F0245001E15CD7010A01E145D7030AD4
:1025540001E17BD7010A87E0070AB1E0010A91E0B3
:10256400030ADBE0010AC9E00F0AE6E01200990E53
:102574000201C36F020EC46F85D8AA0EDF6E7BD82A
:10258400DF6A85D80F0F7ED8DF6E020174D8290E5A
:10259400DF6E71D8050EDF6E6ED8DF6A6CD8060E5A
:1025A400DF6E69D8DF6867D84D0EDF6E64D8430EDE
:1025B400DF6E61D8480EDF6E5ED8500EDF6E5BD8DA
:1025C400AAC0DFFF64D8040F5DD8DF6E020153D8C0
:1025D400090EDF6E50D84C0EDF6E4DD8450EDF6EFF
:1025E4004AD85F0EDF6EC34BC42BC26B0FD0010EF3
:1025F400C225D96EDA6A010EDA22C3C2E1FFC4C26F
:10260400E2FFDFCFE7FFC34BC42BC22B0101005114
:102614000201C25DECE3C16B020EC26F09D0990ED8
:10262400C225D96EDA6A020EDA22DF50C127C22B24
:10263400010100511A6E1B6A120E1A26000E1B228B
:102644000201C2511C6E1D6A1A501C5C1D50800A86
:102654001E6E1B50800A1E58E2E3C16D13D8C1C21E
:10266400DFFF990E176E020E186E01010051130F51
:10267400196E82EF22F0C34BC42BC3C2D9FFC4C26C
:10268400DAFF1200C3C2D9FFC4C2DAFF1200C34B7F
:10269400C42B0101005112002E6A040E19242C6E61
:1026A400000E1A202D6E070E2C242A6E000E2D20EB
:1026B4002B6EAA0E1D6E2BC01EF02AC01FF0120E28
:1026C400206E1BC021F0226A2DC023F02CC024F000
:1026D4002DC025F02CC026F0AA0E276E286A19C03A
:1026E40029F01D0E0F6E106A126A0D0E116E53EC56
:1026F40018F01E0E0D6E0E6A106A0C0E0F6E2E5020
:1027040070EC22F02E6E17C00FF018C010F019C034
:1027140011F01AC012F053EC18F017C00DF018C0E5
:102724000EF019C00FF01AC010F02E5070EC22F009
:102734002E6E1C0E14D853EC18F01CC01DF01D0E88
:102744000D6E0E6A106A010E0F6E2E5070EC22F0A0
:102754002E6E2E6C2E0E03D853EC18F006D00F6E8E
:10276400106A126A010E116E010C0E0ECC6F0E0C63
:102774000D6E40D00E0E0001C26F0E0C0E0E000145
:10278400C36F0E0C0E0E0001C46F0E0C0E0E000172
:10279400C56F0E0C0E0E0001C66F0E0C0E0E00015E
:1027A400D16F0E0C0E0E0001C76F0E0C0E0E000141
:1027B400C86F0E0C0E0E0001C96F0E0C0E0E000138
:1027C400CA6F0E0C0E0E0001CC6F0E0C0E0E000123
:1027D400CB6F0E0C0E0E0001CD6F0E0C0E0E000111
:1027E400CE6F0E0C0E0E0001CF6F0E0C0E0E0001FC
:1027F400D06F0E0C0D50020ABDE0060ABFE00A0AB3
:10280400D1E0010AC7E01F0AC9E0020ADBE0010ABD
:10281400E1E0060AEBE0020AC9E00F0ACBE0060A8F
:10282400D5E0010ADFE03C0AC9E00A0AD7E01A0A47
:10283400A9E0070AABE01200AA0E226E236A1A501E
:10284400040F246E2A0E256E030E266E276A1AC004
:1028540028F019508009296E336A19D01950080DCF
:1028640017C01BF018C01CF0F3501B26F4501C2298
:1028740033501B24D96E000E1C20DA6E33C01DF0B9
:10288400080E1D261D50220F1FEC22F0332A1B6850
:102894001C681A501D6E1E6A1B501D261C501E22D9
:1028A40033501F6E206A1D501F5C2050800A216E19
:1028B4001E50800A2158D2E3240E0D6E0E6A1AC0EF
:1028C4001BF0060E1B261B50220F1C6E1CC00FF0A3
:1028D400106AA6EC22F01D6E1AC01EF0070E1E260A
:1028E4001E50220FD96EDA6A1DC0DFFF220E0F6E52
:1028F400106A080E1A244EEC18F053EF18F0C80EA4
:102904001C6401D0C80C1D0405E11C500001A5EC99
:102914001BF00DD020EE02F01A50D9261B50DA22FB
:10292400DF5000017827000E79237A237B23030EDE
:102934001D1803E0020E1D1809E11A4A1B2A1A4A3F
:102944001B2A3AD8DF501C6E1A4A1B2A1E6A08D06A
:1029540033D8AEEC1BF01A4A1B2AB7EC1BF01E2A24
:102964001C501E5CF5E31D0403E0020E1D1802E179
:10297400040E1DD0030E1D18D8A41200FC0E7825D9
:102984001F6EFF0E7921206E20C001F31FC002F3D9
:10299400000E0D6E030E0E6E78C00FF04AEC16F0AA
:1029A400000902E0030E01D0010E000100D0806F87
:1029B400816B826B836B000C1AC0D9FF1BC0DAFFDA
:1029C400120054D03F0409E0020E3F1806E0030E43
:1029D4003F1803E0040E3F180DE10E0E4D640AD0BB
:1029E400F4EC20F0000904E059EC0EF084EF1EF042
:1029F40047841200000E67EC1FF0000EFCEC21F07F
:102A04000E0E4D640E0CF4EC20F0000905E04F505E
:102A1400D9EC23F0A7EF1DF044801200010E67ECFF
:102A24001FF0010EFCEC21F00E0E4D640E0CF4ECC4
:102A340020F0000905E05050E0EC24F07AEF1CF09F
:102A440044821200020E67EC1FF0020EFCEC21F02F
:102A54000E0E4D640E0CF4EC20F0000905E051500C
:102A6400E0EC24F085EF1DF0448412005250AAE0FB
:102A7400010AD4E0030AE6E0120054D03F0409E05E
:102A8400020E3F1806E0030E3F1803E0040E3F1841
:102A94000DE10E0E4D640AD0F4EC20F0000904E0C0
:102AA4005CEC0EF084EF1EF047861200000E81EC01
:102AB4001FF0000EFCEC21F00E0E4D640E0CF4EC35
:102AC40020F0000905E04F50D9EC23F0A7EF1DF0EA
:102AD40044801200010E81EC1FF0010EFCEC21F089
:102AE4000E0E4D640E0CF4EC20F0000905E050507D
:102AF400E0EC24F07AEF1CF044821200020E81EC28
:102B04001FF0020EFCEC21F00E0E4D640E0CF4ECE2
:102B140020F0000905E05150E0EC24F085EF1DF0B1
:102B2400448412005250AAE0010AD4E0030AE6E009
:102B340012003BD0F4EC20F00009D8B41200000ECF
:102B4400176E030E186E78C019F079C01AF0EAEC0B
:102B540019F0020ED9EF14F004EC25F0000908E195
:102B6400220EACEC20F0806B816B826B836B1200C5
:102B740004EC25F0040A05E004EC25F0050AD8A4C9
:102B84001200010ED9EF14F0F4EC20F00009D8B4CF
:102B94001200000E176E030E186E78C019F082EC46
:102BA40022F0220EACEC20F0DED780C029F081C0E8
:102BB4002AF082C02BF083C02CF02C50D8A4120031
:102BC4000ED02A50D8A412002950D8B41200010AF9
:102BD400B1E0030AC1E0010AD8A41200D5D72B50F2
:102BE400F0E012000E6E0F0E0D1630D00DC0C2F0C4
:102BF40012000DC0C3F012000DC0C4F012000DC0CD
:102C0400C5F012000DC0C6F012000DC0D1F01200C4
:102C14000DC0C7F012000DC0C8F012000DC0C9F0FD
:102C240012000DC0CAF012000DC0CCF012000DC08D
:102C3400CBF012000DC0CDF012000DC0CEF012008A
:102C44000DC0CFF012000DC0D0F012000E50020AD9
:102C5400CDE0060ACEE00A0ADBE0010AD3E01F0A4F
:102C6400D4E0020AE1E0010AE5E0060AECE0020A27
:102C7400D2E00F0AD3E0060ADAE0010AE1E03C0AF6
:102C8400D0E00A0ADAE01A0AB7E0070AB8E012004C
:102C9400010E186E146A166A46D00DC0D9FF0EC014
:102CA400DAFFDF50196E0D4A0E2A0F062ED0AA0E37
:102CB400191802E1010E21D0186A31D01950FCE133
:102CC400020E1BD019C015F019C017F00F50106E6A
:102CD400116A1750126E136A122A000E1322105032
:102CE4001218EAE111501318E7E1030E06D0195047
:102CF40015261706175013E1040E166E10D0155042
:102D04001924DAE1010E146E0AD01650D0E0010A3B
:102D1400D5E0030AD7E0010AEAE0070AF0E014501C
:102D240004E1185002E00F50B8E118501200980561
:102D340003E1986B010E966F9651D8B41200F4EC2F
:102D440020F0000901E112000AEC25F0236E0E0EBA
:102D5400231801E11200030E231809E0040E2318BE
:102D640006E0050E231803E0020E231821E1010EEC
:102D740096651ED096071CD0000EA1EC1EF0020E24
:102D84000001966F020CB9EC12F0040E0001966F6C
:102D9400040CDCEC20F0050E0001966F050C010E0E
:102DA400A1EC1EF0060E0001966F060C966B120045
:102DB4009651010AE1E0030AE6E0060AEAE0010AA4
:102DC400EEE0030AF3E01200000E116E020E126E22
:102DD4004150D8B4000C4104D8B4000C030E41187F
:102DE400D8B4000C060E4118D8B4000C0001C1057B
:102DF40001E1000C11C0D9FF12C0DAFFAA0EDF6E88
:102E040026D8DF6A24D8560EDF6E21D8300EDF6E46
:102E14001ED8130EDF6E114A122A106A0FD00DC08D
:102E2400D9FF0EC0DAFF11C0E1FF12C0E2FFDFCF0D
:102E3400E7FF0D4A0E2A114A122A102A0F50105C7D
:102E4400EEE300019A6B896B640E886F010C114AE2
:102E5400122A11C0D9FF12C0DAFF1200296A070E24
:102E64001924276E000E1A20286EAA0E1C6E28C084
:102E74001DF027C01EF0120E1F6E1BC020F0216A29
:102E84001AC022F019C023F01AC024F019C025F08A
:102E94001C0E0F6E106A126A0A0E116E53EC18F0B3
:102EA4001D0E0D6E0E6A106A090E0F6E295070EC1D
:102EB40022F0296E17C00FF018C010F019C011F0DD
:102EC4001AC012F053EC18F017C00DF018C00EF031
:102ED40019C00FF01AC010F0295070EC22F0296EBE
:102EE400296C290EB1EC13F053EC18F0B7EF13F082
:102EF4001D0E4D182CE0190E4D1829E01A0E4D1810
:102F040026E01B0E4D1823E01C0E4D1820E0120085
:102F1400F4EC20F016D048881200F4EC20F00009FC
:102F240003E029D884EF1EF0488A1200F4EC20F064
:102F3400000903E023D884EF1EF0488C1200F4EC5F
:102F440020F00009E8E0BEEC0CF084EF1EF04150E4
:102F540002E1B3EF24F0010ADBE0030ADEE0010A38
:102F6400DCE0070AD8B41200010AE0E0030ADEE05C
:102F7400010AE5E012004EC017F0E40C4EC017F051
:102F8400E50C00018651871105E120EC1CF0876BEC
:102F9400320E866FEAEC22F0020A05E0EAEC22F037
:102FA400030AD8A412000001C051D8B41200F4ECF2
:102FB40020F0000928E11200B551010ED8B4000E2A
:102FC400B46F020EC06F10EC25F0000905E0B405E3
:102FD40003E1060E2FEF1FF0B7EC23F00009D8B47D
:102FE4001200B451D8A41200050E2FEF1FF0C06BCD
:102FF4000DEC25F0000903E0010E176E01D0176AED
:10300400B451CCEF1CF00001C051010AD5E0030A11
:10301400EEE012002D6EAA0E1C6E1D6A1750040FEE
:103024001E6E2A0E1F6E030E206E216A17C022F038
:103034002E6A0DD02D502E24D96EDA6A2EC018F0C7
:10304400070E182618501C0F1FEC22F02E2A1750BA
:103054002E5CF0E31E0E0D6E0E6A17C018F0060EFD
:10306400182618501C0F196E19C00FF0106AA6EC20
:1030740022F01A6E17C01BF0070E1B261B501C0FE4
:10308400D96EDA6A1AC0DFFF1C0E0F6E106A080EC2
:10309400172402D853EF18F0116E126A000E122290
:1030A400000C010E166EB2C015F08CC013F08DC06A
:1030B40014F0020E0001B2192EE112000FC0D9FF64
:1030C40010C0DAFFFF0E8C25E16E040E8D21E26E36
:1030D400DFCFE7FF0F4A102A8C4B8D2B2C0E8C5D13
:1030E400010E8D5902E38C6B8D6B4A508C1911E1E2
:1030F4004B508D190EE11150121008E0166A15C0DC
:10310400B2F013C08CF014C08DF00CD0020EB26F6C
:1031140009D0010EB26F1106D8A012061128CEE113
:103124001228CCE1165002E09EEF21F0120004EECA
:10313400FFF011EE2CF0EE6AE550E150FCE1E250B4
:10314400FAE104EE00F010EEFFF0EE6AE550E15013
:10315400FCE1E250FAE103EE00F0C80EEE6AE80684
:10316400FDE102EE00F0990EEE6AE806FDE101EEE3
:1031740000F0E90EEE6AE806FDE100EE60F08D0E67
:10318400EE6AE806FDE100EE3FF0140EEE6AE80692
:10319400FDE1360EF66E4A0EF76E000EF86E09006B
:1031A400F5CFFEF00900F5CFFFF053905392000ED7
:1031B400F86E000138EF22F0720ED26F730E0BEC32
:1031C40011F09FEC23F005EC11F032EC20F0710EBD
:1031D400D26F2A0E0BEC11F09FEC23F005EC11F0EA
:1031E40032EC20F0710ED26F5D0E0BEC11F09FECFF
:1031F40023F005EC11F032EC20F0710ED26F6F0E5B
:103204000BEC11F09FEC23F005EC11F032EC20F004
:10321400710ED26F4F0E0BEC11F09FEC23F005EC06
:1032240011F032EC20F0730ED26FDA0E0BEC11F0C9
:103234009FEC23F005EC11F032EC20F019EF20F0B4
:103244003FD094EC22F00E6E2ED0AA0E0E1835E16B
:10325400010E21D00E5002E1020E1DD0A16B2DD023
:10326400A26B8A6B8B6B0EC09FF00EC09EF00EC0DB
:10327400A0F0030E10D00E509E27A007210E8A2521
:10328400D96E010E8B21DA6E0EC0DFFF8A4B8B2BB9
:10329400A05113E1040EA16F10D09E510E24DEE163
:1032A400010EA26FDBD7A151D0E0010AD3E0030ADB
:1032B400D7E0010AE0E0070AF0E0A25101E01200C1
:1032C4000001B751BEE112001D0E4D182EE0190E7B
:1032D4004D182BE01A0E4D1828E01B0E4D1825E052
:1032E4001C0E4D1822E01200F4EC20F00ED0488899
:1032F4001200F4EC20F0000904E0C0EC17F084EFB5
:103304001EF0488C1200F4EC20F00009F0E0BEEC52
:103314000CF084EF1EF0F4EC20F0000904E0BDECA6
:1033240017F084EF1EF0488A1200415002E1ADEF1D
:1033340024F0010AD9E0030ADCE0010ADAE0070A12
:10334400E2E0010AE8E0030AE6E0010A1200116A79
:10335400126A8D808D828D94136A132A090E136468
:10336400FCD78150070B0F6E106AD8900F361036B9
:103374001FD88D808D928D84136A132A090E1364CD
:10338400FCD71DD815D8D8900F3610368D908D8265
:103394008D84136A132A090E1364FCD710D88D8008
:1033A4000F1E010E101A0FC00DF010C00EF0010C0C
:1033B400D8900F361036D8900F3610361200815040
:1033C400070B116E126A11500F12125010121200D4
:1033D400286A1928266E000E1A20276EAA0E1B6E64
:1033E40027C01CF026C01DF0120E1E6E1B0E0F6EA1
:1033F400106A126A040E116E53EC18F01C0E0D6E56
:103404000E6A106A030E0F6E285070EC22F0286EBC
:1034140017C00FF018C010F019C011F01AC012F044
:1034240053EC18F017C00DF018C00EF019C00FF0CF
:103434001AC010F0285070EC22F0286E286C280E68
:10344400B1EC13F053EC18F0B7EF13F00F6A0F5010
:10345400200F33D80F50070D5A0EF324D96E020EE5
:10346400F420DA6E0800F5CFDFFF0F50290F25D8BE
:103474000800F5CF0EF00F5018D80201DF500E18D7
:10348400F00B0E18DF6E0F5010D8DF980F50070D99
:103494005C0EF324D96E020EF420DA6EDE6ADD6A65
:1034A4000F2A080E0F64D3D7080C070D5B0EF32404
:1034B400D96E020EF420DA6E12000D6E0DC0F6FF06
:1034C400080EF76E12002B6E28D0F4EC20F00009E1
:1034D40006E027C017F028C018F0DEEF1AF02BD84A
:1034E400DF500001D96F1FD8DA6F1DD8DB6F1BD8EE
:1034F400DC6F19D8DD6F17D8DE6F448612001BD835
:10350400DE04D8A41200F4EC20F0000904E044EC3A
:103514000EF084EF1EF0468C12002B50010AD5E009
:10352400030AEDE01200274A282A27C0D9FF28C041
:10353400DAFFDF50120027C0D9FF28C0DAFF1200DB
:10354400126A10AE06D00F6C101ED8B0102A010EED
:10355400126E0EAE06D00D6C0E1ED8B00E2A010EE1
:10356400121A136A146A0F5010101BE0010E116E28
:1035740004D0D8900F361036112A10AEFAD7D8904E
:10358400133614360F500D5C10500E5805E30F50CF
:103594000D5E10500E5A1380D89010320F32112E37
:1035A400EED7125004E0136C141ED8B0142A13C0C2
:1035B4000DF014C00EF01200AA0E196E1A6A0A0E4B
:1035C4001B6E170E1C6E050E1D6E1E6A070E1F6EF7
:1035D40017C0D9FF18C0DAFFDF50206E1DD8216E46
:1035E4001BD8226E19D8236E17D8246E15D8256ED1
:1035F400174A182A1B0E0D6E0E6A250E0F6E106ADE
:10360400A6EC22F0266E190E0F6E106A126A0E0EC8
:10361400116E53EC18F008D0174A182A17C0D9FFB6
:1036240018C0DAFFDF5012000E0EC86F0E0C106EB9
:10363400000175B11FD02DD8DF6E7351D96EDA6ACF
:10364400D92A0DC0DFFF7351D96EDA6A10C0DFFFCB
:10365400735123D80EC0DFFF030E7327E70E030F49
:10366400736302D0E70E736F75937351741904E199
:10367400758102D00E5008D80CD8DE18D8A41200D8
:10368400BD51FEE1A48E1200D96EDA6A010EDF6E1E
:10369400010C0E50D96EDA6A020CD96EDA6A020E87
:1036A400D926020C0F0EC112896A926A8A6A936A39
:1036B4008B6A946A8C6A956A8D6A966A8E6A976A2E
:1036C4008F6A986A906A996A916A9A6AF18E96905A
:1036D4008D8096928D8296948D8493809382938428
:1036E40098908F9098968F9693869282938A9598C5
:1036F4008C9895968C9695948C949788998C9280B6
:103704009388958C958A988498928F821200C80E1B
:103714000F6401D0C80C0F5016D8116A09D00DC01F
:10372400D9FF0EC0DAFF18D80D4A0E2A1ED8112A66
:103734000F50115CF4E3105003E0010ED9EF14F0C4
:10374400030ED9EF14F0786F796B7A6B7B6B7C6B1B
:103754007D6B7E6B7F6B1200000E7C25E16E030E89
:103764007D21E26EDFCFE7FF12007C2B000E7D236C
:103774007E237F23000C0C0E00019A19D8B412008A
:103784008851891101E012000B0E9A1906E1B7EC79
:1037940007F062EC1DF09A2B12000A0E9A1903E04E
:1037A400356A090E02D0356A050E346E050E176EA1
:1037B400020E186E9AC019F034C01AF01EEC14F000
:1037C4009A2B0B0E9A1906E1020EC11903E10C0E95
:1037D4009A6F0C0C896B640E886F640C0001BF51E6
:1037E40001E012000A0EBF6FA9EC19F00DC02CF015
:1037F4000EC02DF02E6A2CC02BF0010E2B162E506D
:1038040057EC1AF02B3A0201DF502B18EF0B2B1850
:10381400DF6ED8902D322C322E50070D5A0EF32421
:10382400256E020EF420266E286A0A0E276E62ECBC
:103834000EF02E2A080E2E64DED7080C000E85B872
:10384400010E0D6EB31905E08E6B8F6B0DC0B3F0D6
:1038540007D0610E8E5DEA0E8F5902E28E4B8F2BDC
:10386400B5510DE1B351D8A412008F5104E1040EF7
:103874008E5DD8A01200010EB56FC06F010CB3515C
:10388400D8B412008F5104E1040E8E5DD8A012004A
:10389400B56B010EC06F010C116E105009EC23F0D2
:1038A400126E122805E0125017D81150DF121200C0
:1038B4006DEC23F0126E1228D8B41200125012D8F4
:1038C40010C0DFFF125008D8DF6A125005D811501B
:1038D400DF121250E8EF24F0020DF350610FD96E9D
:1038E400DA6A1200020DF350620FD96EDA6A12001E
:1038F400176EAA0E186E196A070E1A6E230E1B6E27
:103904001C6A020E1D6E030E1E6E1F6A17500F0BEB
:10391400206E216A1A0E0D6E0E6A210E0F6E106A49
:10392400A6EC22F0226E180E03D853EC18F006D041
:103934000F6E106A126A0B0E116E0B0C0E0ECA6F0C
:103944000E0CAA0E176E186A0D0E196E1E0E1A6E44
:103954001B68DF0E1C6E1D68BF0E1E6E1F6A206A78
:10396400216A226A236A246A256A266A190E0D6E60
:103974000E6A260E0F6E106AA6EC22F0276E170E42
:103984000F6E106A126A110E116E53EC18F00E0EBF
:10399400CB6F0E0C226EAA0E186E196A030E1A6EE5
:1039A400130E1B6E010E1C6E175006E0225002E02F
:1039B400030E05D0020E03D0225003E0010E1D6E4B
:1039C40001D01D6A1A0E0D6E0E6A1D0E0F6E106A5E
:1039D400A6EC22F01E6E180E25EC1EF053EC18F027
:1039E4000E0ECD6F0E0C196EAA0E1A6E1B6A070E00
:1039F4001C6E230E1D6E1E6A1F6A050E206E195062
:103A04007F0B216E17507F0B226E18507F0B236E95
:103A14001C0E0D6E0E6A230E0F6E106AA6EC22F0B9
:103A2400246E1A0E9AEC1CF053EC18F0A0EF1CF064
:103A3400B251D8B4120012D8066E18D802E34A6AFA
:103A44004B6A4A508C1905E14B508D1902E1B26B57
:103A540002D0010EB26F06504BEF1FF0FF0E4A2446
:103A6400D96E040E4B20DA6EDF5012004A4A4B2AFC
:103A74002C0E4A5C010E4B581200166E07D04F0EE6
:103A840003D0500E01D0510E176E06D01550F7E03A
:103A9400010AF7E0030AF7E0169E1750D96EDA6AB6
:103AA40016501E0D07D87F0E0F6EA2EC1AF00D50A3
:103AB400DF6E1200F3CF0DF0F4CF0EF0106A120097
:103AC400590E196417D0020E17240D6E000E18201B
:103AD4000E6E580E17240F6E000E1820106EA6ECF2
:103AE40022F01A6E20EE59F01750D9261850DA2217
:103AF4001AC0DFFF17C00FF018C010F0126A5A0E78
:103B0400116E53EF18F0176EAA0E186E196A070E8D
:103B14001A6E230E1B6E1C6A040E1D6E030E1E6E9F
:103B24001F6A206A17500F0B216E1A0E0D6E0E6A53
:103B3400210E0F6E106AA6EC22F0226E180E9AEC7B
:103B44001CF053EC18F0A0EF1CF0176EAA0E186EC0
:103B5400196A070E1A6E230E1B6E1C6A010E1D6E67
:103B6400040E1E6E17507F0B1F6E206A216A1A0EF8
:103B74000D6E0E6A210E0F6E106AA6EC22F0226EF4
:103B8400180E9AEC1CF053EC18F0A0EF1CF0126E17
:103B9400105009EC23F0136E1328D8B41200121C31
:103BA400116E13506EEC1CF01150DF1613506EECB6
:103BB4001CF0DF50D8A41200135074EC1CF0DF6A20
:103BC40007EC25F01318D8A41200FF0EE8EF24F038
:103BD4000001B25115E030EC1DF0026E38EC1DF01E
:103BE40002E34A6A4B6A4A508C1905E14B508D191D
:103BF40002E1B26B02D0010EB26F0250BEEF21F0AF
:103C0400020E9C19D8A41200030E9C6F0A0EA36F17
:103C14000A0CAA0E176E186A030E196E1F0E1A6E7E
:103C24001B6AC80E1C6E190E0D6E0E6A1C0E0F6EEA
:103C3400106AA6EC22F01D6E170E05D853EC18F08E
:103C44000E0ECF6F0E0C0F6E106A126A070E116EF5
:103C5400070CAA0E176E186A020E196E0F0E1A6E52
:103C64001B6A190E0D6E0E6A1B0E0F6E106AA6ECFF
:103C740022F01C6E170E05D853EC18F00E0EC66F0A
:103C84000E0C0F6E106A126A060E116E060C4D6A47
:103C9400DAEC22F0ABEC23F08FEC24F0FCEC24F013
:103CA40017EC25F0140E4F6E506E516E526AA76BCE
:103CB400A86B446A456A466A476A486A496A886BD7
:103CC400896B0C0E9A6F996B1200226EAA0E186EF5
:103CD400196A030E1A6E150E1B6E17C01CF022C053
:103CE4001DF01A0E0D6E0E6A1D0E0F6E106AA6ECF4
:103CF40022F01E6E180E25EC1EF053EC18F00E0E7A
:103D0400D06F0E0C186EAA0E196E1A6A030E1B6E73
:103D1400020E1C6E17C01DF018C01EF01B0E0D6E97
:103D24000E6A1E0E0F6E106AA6EC22F01F6E190E9C
:103D340025EC1EF053EC18F00E0EC26F0E0C1A6E2A
:103D4400AA0E1B6E1C6A030E1D6E290E1E6E010E3A
:103D54001F6E1AC020F01D501E241F242024226E22
:103D6400226C22C021F01B0E02D882EF22F0176EC3
:103D7400186A070E196E070C000112D80D6A0E6A34
:103D8400000E0D24D96E030E0E20DA6E000EDF6EC7
:103D94000D4A0E2A0E5003E1C80E0D5CF1E3120029
:103DA4007C6B7D6B7E6B7F6B786B796B7A6B7B6BDB
:103DB400120016D8DF500F6E100E0F6400D0106A78
:103DC4000FD8000E1024E16EE26A010EE222DFCF6A
:103DD400E7FF0D4A0E2A102A100E1064F1D7100CBA
:103DE4000DC0D9FF0EC0DAFF1200136E0FC011F020
:103DF40010C012F0D890113612361350D96EDA6A08
:103E040011C0DEFF12C0DDFF13504FEC1BF00EC0DB
:103E1400DFFF1350D96EDA6A030ED9260DC0DFFF17
:103E2400030C346EAA0E2A6E2B6A020E2C6E010E3F
:103E34002D6E34C02EF02C0E0D6E0E6A2E0E0F6EEB
:103E4400106AA6EC22F02F6E2A0E176E186A1A6AF0
:103E5400060E196E1B6A30EF17F0176EAA0E186E55
:103E6400196A030E1A6E040E1B6E1C6A17C01DF02D
:103E74001A0E0D6E0E6A1D0E0F6E106AA6EC22F05D
:103E84001E6E180E25EC1EF053EC18F00E0EC36FC8
:103E94000E0C056E0001FD51FDE0A3B803D005C072
:103EA4006DFF09D00AD805C0DFFFBA2B0F0EBA6523
:103EB40001D0BA6BFD07A3881200A398110EBA258E
:103EC400D96EDA6A010EDA2212000E6E07D04F0E96
:103ED40003D0500E01D0510E0F6E06D00E50F7E0F5
:103EE400010AF7E0030AF7E00F50D96EDA6A1E0EF2
:103EF400DF601E0C0F50D96EDA6ADF2A12000D6ED5
:103F040007D04F0E03D0500E01D0510E0E6E06D0C6
:103F14000D50F7E0010AF7E0030AF7E00E50D96EFE
:103F2400DA6ADF50D8B412000E50D96EDA6ADF06AE
:103F34001200186E000175B112D018C00DF014C033
:103F44000EF015C00FF016C010F0E30EF7EC1EF0E3
:103F5400E30E0D6E17C00EF0010E19EF1BF0175093
:103F640046EC1BF0010C040E3F1803E0060E3F184C
:103F74000AE1F4EC20F0000904E04DEC0EF084EFCB
:103F84001EF048861200F4EC20F0000903E0070E4E
:103F94002FEF1FF0448E1200AA0E176E186A020E3D
:103FA400196E100E1A6E1B6A190E0D6E0E6A1B0E18
:103FB4000F6E106AA6EC22F01C6E170E43EC1EF076
:103FC40053EC18F00E0ED16F0E0CAA0E176E186A71
:103FD400020E196E340E1A6E1B6A190E0D6E0E6ADD
:103FE4001B0E0F6E106AA6EC22F01C6E170E43EC2B
:103FF4001EF053EC18F00E0EC56F0E0CAA0E176EC1
:10400400186A020E196E0E0E1A6E1B6A190E0D6EC8
:104014000E6A1B0E0F6E106AA6EC22F01C6E170EB1
:1040240043EC1EF053EC18F00E0EC76F0E0CBC518F
:10403400010F1C6E1CC0F6FF080EF76E0800F5CFCA
:10404400D3F0BE0ED36502D0720E01D0730ED26FC0
:1040540010EC11F09FEC23F005EC11F032EF20F09E
:10406400F0EC24F0E806FCE019C014F0166A6C0EBB
:10407400156EEC0E176E1B509BEC1FF0050EB06F07
:1040840003D0B05101E11200F4EC24F00009F9E08E
:104094001200A3BAA4AA04D0A49AD3EC21F00CD0A1
:1040A400A3B8A4A804D0A49824EC21F005D09DB012
:1040B4009EA002D0D1EC24F004C0DAFF03C0D9FFE3
:1040C40053921100EAEC22F0030A01E012003F04CB
:1040D40007E0020E3F1804E0040E3F18D8A41200B3
:1040E400F4EC20F0000904E056EC0EF084EF1EF02E
:1040F400488E1200EAEC22F0030A01E01200050ED9
:10410400411804E0060E4118D8A41200F4EC20F083
:10411400000903E004D884EF1EF0498412004EC065
:1041240017F0F60CAA0E176E186A020E196E170E07
:104134001A6E1B6A190E0D6E0E6A1B0E0F6E106A34
:10414400A6EC22F01C6E170E43EC1EF053EC18F094
:1041540016EF1BF0176EAA0E186E196A020E1A6E6D
:10416400140E1B6E17C01CF01A0E0D6E0E6A1C0E78
:104174000F6E106AA6EC22F01D6E180E43EC1EF0B2
:1041840053EF18F00E6E07D04F0E03D0500E01D02F
:10419400510E0F6E06D00D50F7E0010AF7E0030A46
:1041A400F7E00F0E0E160F50D96EDA6A0E500E2479
:1041B400DF6E1200AA0E1A6E1B6A030E1C6E290E05
:1041C4001D6E040E1E6E97C01FF01C501D241E246D
:1041D4001F24216E216C21C020F01A0EB9EC1EF0B0
:1041E40082EF22F00F6A100E0E6EC20E126E106A6B
:1041F400116A0AD01250D96EDA6A0E0EDE1801E185
:10420400000C122A104A112A0E50105C0F5011583B
:10421400F1E3010CB251D8B4120030EC1DF00E6E73
:1042240038EC1DF002E34A6A4B6A4A508C1905E1E6
:104234004B508D1902E1B26B02D0010EB26F0E50D9
:10424400A9EF21F0100E0001FD6110D0110EBB2565
:10425400D96EDA6A010EDA22DF506D6EBB2B0F0EB7
:10426400BB6501D0BB6BFD2BEAEF1DF0A398EAEF11
:104274001DF0EAEC22F0030A01E01200020E4118DC
:1042840004E0030E4118D8A41200F4EC20F0000955
:1042940004E091EC20F084EF1EF04984120007D072
:1042A4004F0E03D0500E01D0510E1E6E06D0525048
:1042B400F7E0010AF7E0030AF7E01E5002D867EFBF
:1042C40021F0D96EDA6ADF5012001D6E1D50000114
:1042D400BC19D8B412001D5003E1E4EC23F004D05F
:1042E400BC5102E193EC23F01F0E1D601F0C1DC096
:1042F400BCF019EF20F00E6A100E0D6EC20E116E96
:104304000F6A106A08D01150D96EDA6A0F0EDF6E88
:10431400112A0F4A102A0D500F5C0E501058F3E367
:1043240012000AD0020E9C6F0CEF21F0010E9C6F5C
:104334008F80030EA46F030C9C51F8E0010AD8B4DB
:104344001200030AD8B41200010AECE012000D6E48
:104354000001FD51FDE0A3B803D00DC06DFF0AD0EC
:104364005FEC1FF00DC0DFFFBA2B0F0EBA6501D052
:10437400BA6BFD07A3881200016E0001FD51FDE038
:10438400A3B803D001C06DFF0AD05FEC1FF001C0D9
:10439400DFFFBA2B0F0EBA6501D0BA6BFD07A388F5
:1043A40012006BA202D06B986B88000E0001B82536
:1043B40008D86ECFDFFFB82BB82901E1B86BB72B53
:1043C4001200D96EDA6A040EDA221200A39AA398B4
:1043D400480E7C6E900E6B6E260E6C6E210E6F6E08
:1043E4007D6ABA6BBB6B100EFD6FB86BB96BB76BA4
:1043F400A38A12001E6E07D04F0E03D0500E01D0B8
:10440400510E1F6E06D01E50F7E0010AF7E0030AB2
:10441400F7E01F5063EC21F067EF21F00F6A0DC045
:10442400D9FF0EC0DAFF0F50670F07D80D4A0E2AC6
:104434000F2A050E0F64F3D7050CE16EE26ADFCF95
:10444400E7FF1200056E6284000108D805E006D873
:10445400D96EDA6A05C0DFFFBD6B120020EE02F0F0
:104464009051D9269151DA22DF50120027EC23F023
:10447400F28EF28C28EC1AF049EC1EF0DBEC0FF013
:10448400CBEC24F075EC0AF0F0EC1BF0C3EC17F065
:10449400F9D706D0A351D8A412008F909C6B1200B8
:1044A4009C51D8B41200010AD8B41200030AD8B43B
:1044B4001200010AEFE01200B45108E1060E2FECDD
:1044C4001FF0010EB46F020EC06F020CB405D8A425
:1044D4001200050E2FEC1FF0B46BF5D7116E0BD044
:1044E4000DC0D9FF0EC0DAFFDF5011260D4A0E2A87
:1044F4000F06D8A010060F501010F2E11150120050
:1045040017C00FF018C010F019C011F0126A53EC64
:1045140018F020EE03F01750D9261850DA22DF5095
:10452400BAEF13F00001B751FDE0A39A000EB925CC
:10453400E3EC21F0DF500D6EB92BB92901E1B96B21
:10454400B707A38A0D501200116A08D00DC0D9FF15
:104554000EC0DAFFDF5011260D4A0E2A0D500F5CF3
:104564000E501058F3E2116C115012003F50D8B4A1
:104574001200060E3F18D8B41200F4EC20F0000923
:1045840004E050EC0EF084EF1EF049861200A351B3
:1045940001E0A307A451D8B41200A407A451D8A4DD
:1045A40012009C05D8A41200020E9C6F1AEF1DF095
:1045B4000001A56B010EA96F3F6A406A416A4E6A09
:1045C40037EC24F000019D6BB16B9B6BB66B120052
:1045D400250E4D1801E1010C0E0E4D6404D01D0E84
:1045E4004D6001D0020C1D0E4D1801E1030C000CAE
:1045F400E70E0001746F736F75837591776B800E8E
:10460400646E280E636E656EA49EA38E280C0E6ED7
:104614000F6A0F5074EC1CF00E50DE1802E10F50BC
:1046240012000F2A020E0F64F4D7FF0C42504310FD
:1046340003E04206D8A04306000188518911D8B48A
:1046440012008807D8A089071200DCEC24F054EC8F
:104654001BF06FEC24F0FAEC22F0E8EC21F035ECDE
:1046640023F0C3EF23F0100ED56EF80ED76E300E84
:10467400D66EF80EFA6F300EF96FF294F28A15EFD7
:1046840025F01D0E4D18D8A41200F4EC20F00009FA
:1046940004E044EC0EF084EF1EF0468C120018EC9B
:1046A40023F07AEC23F0C9EC22F01DEC25F000ECA9
:1046B40025F0D7EC24F097EF24F008D8BE2F03D0D0
:1046C400040EBD6F040C010EBD6F010C040E922785
:1046D400000E9323000C0D6A0D506EEC1CF0DF509D
:1046E40002E10D5012000D2A020E0D64F5D7FF0CE5
:1046F400FE2903E1FF29D8B41200FE51FF11D8B4FA
:104704001200FE07D8A0FF0712000001BC51D8B464
:104714001200BC0719EC20F0BC51D8B4E4EC23F02F
:10472400120008D80BEC11F09FEC23F005EC11F00B
:1047340032EF20F0100ED26F0B0C0F6A106A03D008
:1047440000F00F4A102A0D500F5C0E501058F8E379
:1047540012000001A26BA16B02D094EC22F0B751BD
:10476400FCE17DEC21F0BEEF1EF00D6AA5A707D099
:10477400020EA61902E0A65102E1010E0D6E0D50C3
:104784001200100ECD6ECF689C0ECE6EFC69FB6FCE
:104794009E909D8013EF25F00001BC5102E193EC43
:1047A40023F01E0EBC611E0CBC2B19EF20F0156EFD
:1047B40015507F0D5CEC1DF01E0E0F6EA2EC1AF06E
:1047C4000D501200100ED26FD36B10EC11F09FEC51
:1047D40023F005EC11F032EF20F03A6E3AC030F0DD
:1047E400316A2FC032F0030E176E300E0CEF18F042
:1047F4000D6E0D500001AA19D8B412000DC0AAF014
:10480400010E986F010CF4EC20F0000904E05FEC59
:104814000EF084EF1EF0468E1200F4EC20F0000936
:1048240004E047EC0EF084EF1EF047821200F4EC33
:1048340020F0000904E04AEC0EF084EF1EF04780FB
:10484400120022EC19F0A251D8B41200C2EC07F005
:104854000001A26B1200010E0D6E0001965103E1DE
:10486400985101E10D6A0D501200606B0E6A0E50F2
:1048740041EC24F00E2A020E0E64F9D7020C0D6EE0
:104884000D5074EC1CF0DF6A0D506EEC1CF0DF6A06
:10489400000C77EC24F00D040E10D8B4A5A7120078
:1048A4005EEF22F0F4EC20F0000903E0030E2FEF9A
:1048B4001FF0448C1200F4EC20F0000903E0010E18
:1048C4002FEF1FF0448A1200F4EC20F0000903E0FB
:1048D400000E2FEF1FF044881200D08EA58AA58801
:1048E4009F80A59CA59EF19412000001B505010EC0
:1048F400D8A4000E0D6E0E6A1200000180518111C1
:104904008211831101E1010C000C0001980501E101
:10491400000C9651D8A4000C010C00018C6B8D6B1B
:104924004A6A4B6AB26B7DEF21F086518711D8B485
:1049340012008607D8A0870712000D6E0DC097F0ED
:10494400010E0001986F010CF294FAC0D7FFF9C070
:10495400D6FF19EF25F0C1EC0CF084EC1EF0468074
:104964001200C4EC0CF084EC1EF046821200030E1C
:104974000001B619D8B4010C000C11C00DF012C01E
:104984000EF0DBEF1EF0010E0001FF6FF40EFE6F60
:10499400F40C876B0A0E866FB46BB36B12009E9097
:1049A400FCC0CFFFFBC0CEFF1200AF2BB051D8A488
:1049B400B0071200020ED36E9B6A12000D6ED890DF
:1049C4000D3012000D6E0DC0C1F012000D6E0DC041
:1049D40060F012000001A8BD010C000C000175B1CB
:1049E400010C000CBD5101E1010C000C0D6E0DC059
:1049F4004CF012000001986B966B1200BF51D8A4C2
:104A0400BF0712000001CC511200000160511200D6
:104A14000001CE511200A7BB010C000CA551080BDC
:104A24001200CD801200D58E1200D2EF1EF051EF8D
:0E4A340023F0FFFF1200120012001200120009
:067FF80020F4C4FFF8F3C1
:00000001FF
